:020000041000EA
:10000000002008205D0100101B0100101D010010E0
:100010001101001011010010110100101101001058
:100020001901001019010010190100101F01001022
:10003000110100101901001021010010230100100E
:100040001101001011010010110100101101001028
:100050001101001011010010110100101101001018
:100060001101001011010010110100101101001008
:1000700011010010110100101101001011010010F8
:1000800011010010110100101101001011010010E8
:1000900011010010110100101101001011010010D8
:1000A00011010010110100101101001011010010C8
:1000B00011010010110100101101001011010010B8
:1000C00011010010110100101101001011010010A8
:1000D0001101001011010010110100101101001098
:1000E0001101001011010010110100101101001088
:1000F0001101001011010010110100101101001078
:100100001101001011010010110100101101001067
:10011000EFF30580103800BE00BE00BE00BE00BE7A
:1001200000BE00BEF2EB8871081E0110281E0110EF
:10013000A001001090A31AE7D3DEFFFF42012110B7
:10014000FF01000010350100793512AB4FF00000BF
:100150001E49086006C881F3088810474FF05040D8
:10016000006810B14FF00000F2E70DA40ECC00299A
:1001700002D000F012F8F9E71549164A002000E015
:1001800001C19142FCD11449884714498847144958
:10019000884700BEFDE701C901C29A42FBD3704700
:1001A000281E0110100100203019002048360110CF
:1001B0000000082000000820483601100010082028
:1001C00000100820000000007047000008ED00E06B
:1001D00030190020D02600202D1900103502001003
:1001E00025190010F8B500BF064B0749C91A891038
:1001F00048BF0131491003D0044B0BB101481847E7
:10020000704700BF301900203019002000000000A6
:1002100008B5054B1BB105490548AFF30080BDE8A3
:100220000840FFF7E1BF00BF00000000602600208B
:10023000305A00102DE9F0432DED088B8BB001F002
:1002400075FC15238024674A8DF810300392DDE990
:1002500003236549CDE9004405A804F04DF963493D
:1002600005A804F069F9002105A804F079FB01252F
:1002700042F6456000221021CDE900055C4B05A83F
:1002800004F0CCFC32230A224FF4784105A8CDE9D2
:100290000031114604F0EAFB7F2300224FF4FC6199
:1002A00005A8CDE90031114604F088FB1E23462243
:1002B0001F2105A8CDE90031114604F001FC05A875
:1002C00004F09EFD40F6B83000F02EFF002105A896
:1002D00004F046FB00229FED478A47492346CDE9BB
:1002E000004105A8114604F0C7FC05A804F088FDEC
:1002F00042F2107000F018FFB0EE00BAF7EE00AA5C
:10030000B2EE009ADFED3DBAF0EE488A78EEAA8AA6
:1003100078EEC99AF5EEC09AF1EE10FA38EE0B8A33
:1003200006D478EE897AF4EEEB7AF1EE10FA01DB7E
:10033000F1EE6AAA38EE49AAB5EEC0AAF1EE10FABB
:1003400006D478EE097AF4EEEB7AF1EE10FA01DBDE
:10035000B1EE4BBA002105A804F002FB0026DFF83D
:10036000A0800025B7B200234FF0FF0919467F2275
:100370003046CDF8009004F0ABFD0023044619464A
:100380007F222846CDF8009004F0A2FD08EA04235D
:10039000C20002F4FC6203F4784313433946AAB264
:1003A00005A8013504F0F4FA802DDCD10136802E49
:1003B000D7D1BCEECAAAFCEEE99A1F211024019104
:1003C0001AEE102A19EE901A234605A892B289B2A5
:1003D000009404F075FB05A804F012FD204600F01F
:1003E000A3FE93E7121311140000084080969800B2
:1003F000305A001000007C42B45B00100000004343
:1004000000F8FFFF4FF4807C0C4B00B553F8202020
:1004100003EB8003C00082F0400200F1804003F54E
:10042000805E02F0C00200F5203003F54053CEF8A4
:1004300000204160C3F800C000BD00BF048003403D
:100440004FF0000300B543EC440043EC40004FF094
:10045000050E4FF4807C0C4BC20053F8201003EBC8
:10046000800081F0400102F1804303F5203301F068
:10047000C00200F5805100F540500A60C3F804E066
:10048000C0F800C000BD00BF048003400FB400B539
:10049000084883B001F08EFB049B3BB105A91846C8
:1004A000019101F00FFA044801F084FB012001F0F2
:1004B00021FA00BF405A0010505A001070B516467D
:1004C000EFF3108472B6DFF848E0DEE8CF2F0123A7
:1004D000002AFAD1CEE8423F002AF6D1BFF35F8F5F
:1004E000012301F0070CCA0803FA0CF310F802C04C
:1004F0001CEA030508D14CEA030C00F802C0CEE860
:100500008F5F84F3108870BD3046FFF7BFFF00BFD8
:10051000D71D0020F8B50F461946EFF3108672B6C6
:100520001C4DD5E8CF4F0123002CFAD1C5E8443F3C
:10053000002CF6D1BFF35F8F8A421BD8012402E062
:100540000132914222D3D30810F803E002F0070CE5
:1005500004FA0CFC1EEA0C0FF2D14EEA0C0E00F865
:1005600003E010460023C5E88F3F86F310889842C9
:1005700007DBF8BD0023C5E88F3F86F310884FF0F6
:10058000FF30002FF5D00698FFF780FF4FF0FF30C7
:10059000E8E700BFD71D0020044A1078431CDBB2F7
:1005A000182B28BF10231370704700BF700E002057
:1005B00000B5DFF81CC083B001461F231822CDF818
:1005C00000C00248FFF7A6FF03B000BDE8210020ED
:1005D000545A00104FF0E022936843F000539360A8
:1005E000704700BF0021044B03F12002C3E88F1FB6
:1005F00001339342FAD17047CC1D00204FF0E02325
:100600004FF08032C3F80024C3F80424C3F8082450
:10061000C3F80C24C3F81024C3F81424C3F8182416
:10062000C3F81C24C3F82024C3F82424C3F82824C6
:10063000C3F82C24C3F8302462B67047012300F0BD
:100640001F029340400941B1800000F1604000F575
:100650006140C0F8803103607047024A203042F8A0
:100660002030704700E100E00123064A410952F8BA
:10067000212000F01F008340134214BF01200020FE
:10068000704700BF00E100E001224309034900F088
:100690001F008240403341F82320704700E100E012
:1006A000054A10309268054B52F82000C01A2F28D6
:1006B0008CBF00200120704700ED00E0740E002088
:1006C00010B582B0EFF3108472B6164BD3E8CFCFDB
:1006D0000122BCF1000FF9D1C3E84C2FBCF1000F8F
:1006E000F4D1BFF35F8F104A10309268DFF83CC03E
:1006F00052F82020624508D0914206D0CDE9000191
:1007000000F0B6FF0199074B0098074A926842F83B
:100710002010BFF35F8F0022C3E88F2F84F310886F
:1007200002B010BDD51D002000ED00E01101001049
:100730002DE9F04F06468A46154683B0EFF3108840
:1007400072B6714FD7E8CF2F0123002AFAD1C7E83C
:10075000423F002AF6D1BFF35F8F6C4991F9002028
:10076000002A7BDB6A4802EB420400EB840393F827
:1007700006C0103681F800C06649A40089684FEAB7
:10078000420B51F826E0AEEB00012F292ED9624929
:100790008E4540F0848043F0010E604B02340444E7
:1007A000043B1B1BC3F34A036FEAC3434FF42141CD
:1007B0006FEAD3435A4420F8221000EB82025380A0
:1007C0004BF601539380FF23D571C2F808A09371B3
:1007D000504B9B6843F826E0BFF35F8F0023C7E8C8
:1007E0008F3F88F3108803B0BDE8F08F2EF0010C26
:1007F0009CF80710A9425AD9B14601941E4603E05D
:10080000CB79AB4230D98C469CF9064004EB4401CD
:10081000002C00EB8101F3DA00944BF601543346CF
:100820004E460CF10409043BA3EB0903C3F34A034E
:100830006FEAC3436FEAD343ACF80430384B0BEB99
:1008400002018CF8062040F82130009B00EB810269
:1008500094809371D571C2F808A0B9E700F008FF41
:100860002A4991F900207DE76FF007010094019C6F
:1008700033460C1B6146241A019431F8044F4E464E
:1008800044F30A04023401EB4404894601990C4400
:10089000C4F34A046FEAC4446FEAD444C3E7CDE921
:1008A000002300F0E5FEDDE90023194873E71B4A49
:1008B000A11CDD710144043A251D521A0544ACF116
:1008C0000401491BC1F34A016FEAC141C2F34A0264
:1008D0006FEAC2426FEAD1414FF4214E6FEAD24231
:1008E00099800F4920F804E05A804AF6AA2562460A
:1008F000121A524155432D0DC3F808A09D7143F0C3
:10090000010ECCF8001063E7D51D0020C82600209A
:10091000740E002000ED00E011010010A40E002074
:10092000014880472DE9F041EFF30583DBB29E4695
:10093000EFF3108572B62949D1E8CF2F0123002AA1
:10094000FAD1C1E8423F002AF6D1BFF35F8FDFF84A
:100950009C8040F00106D8F808704AF6AA2357F8A0
:100960002E7004461E4AA41A644163431B0DB7420D
:100970005BB21ED092F906409C4220D092F9124000
:100980009C4227D092F91E409C4225D092F92A40E1
:100990009C4208BF032413D0124A002492F800C0DE
:1009A000137080F806C0C1E88F4F85F31088BDE84A
:1009B000F081D8F808200C4C42F82E40ECE70024D7
:1009C00004EB440402EB8402FF2494714BF60154BF
:1009D0009480E1E70124F3E70224F1E7D51D00202C
:1009E000740E0020C82600201101001000ED00E068
:1009F00000B5DFF824C083B0014605230022CDF8FE
:100A000000C00448FFF786FD0028A8BFC0F13300EE
:100A100003B000BDCC260020705A0010014B0B44DF
:100A200003607047CC1D002070B5104C104DAC42D7
:100A30000ED2FF26236863B1FFF7AEFD01462046C4
:100A4000FFF7ECFFA680BFF35F8F0834AC42F1D311
:100A500070BDFFF7A1FD01462046FFF7DFFF2671BD
:100A6000BFF35F8F0834AC42E4D370BD2819002077
:100A70003019002010B50446FFF78EFD01462046D0
:100A8000FFF7CCFFFF232371BFF35F8F10BD00BFC3
:100A900010B504460120FFF78BFD034B0344236090
:100AA000BFF35F8F10BD00BFCC1D0020024B0B4475
:100AB0000360BFF35F8F7047CC1D00200D4B1A6899
:100AC000EFF3108172B6D2E8CFCF0120BCF1000F56
:100AD000F9D1C2E84C0FBCF1000FF4D1BFF35F8F26
:100AE00000221B68C3E88F2F81F3108840BF0020CD
:100AF00000217047A82600202DE9F04F2DED028B34
:100B000085B0EFF30583DBB2103B9A0818BF0122D2
:100B10004FF0010103F0030B18BFA94CA94B08BF0C
:100B2000A94C0BEB820253F8225001FA0BF204F5A8
:100B300041539FEDA18B02925A602FE0AB881904BC
:100B400040F19480AB79002B40F0DE80B5F908606D
:100B5000002EC0F21C816B6906EB460603EBC60350
:100B6000D3E90267B7F1FF3F08BFB6F1FF3F0ED0F0
:100B700004EB8B01A36A0A69D21AF31A934205D3D4
:100B80000123226A03FA0BF3134200D10E612046BF
:100B900000F0C6FBB042B941C0F2F980B5F9086077
:100BA000029B002EE363C9DBD5F8149006EB460ADE
:100BB00009EBCA07BB682046D7F80C80019300F008
:100BC000AFFB019B984271EB0801B7DBB8F1000F56
:100BD000C0F2C080D7E904317C4A934200F0F8802B
:100BE0007A88B5F9080092B242EA00409847024676
:100BF0000B4652EA030100F0AD80002B80F2CD805D
:100C00000199B1EB020E68EB030839F93A30C7E9F4
:100C100002E8002B92DB686903EB430200EBC2029F
:100C2000D2E90271BE4578EB010C4FEA430285DB45
:100C3000AC462CF8083F06E003EB430100EBC10192
:100C40005A00D1E90271BE4578EB01011A4405DB77
:100C500030F9323000EBC20C002BEDDA29F83A30D3
:100C6000ACF80060AB8819043FF56CAF2B69EFF36B
:100C7000108272B6D3E8CF0F01210028FAD1C3E861
:100C8000401F0028F6D1BFF35F8F4FF6FF76A8888C
:100C90000023296900B2AE80C1E88F3F82F310883B
:100CA0009842FFF64FAF0746A1466E6905F1080866
:100CB000B5F9083007EB470E002BC44606EBCE0211
:100CC00015DBD2E90240AA46019704E036F9353037
:100CD0009446002B09DB03EB430506EBC502D2E982
:100CE0000271BC4270EB0101F0DA5546019FACF88D
:100CF000007036F93E7026F83E30002FD8DAAB7916
:100D00004C46002B3FF422AF0023AB71B5F90860CD
:100D1000721C33463BD0686905F1080E03E08E462D
:100D20005A1C3FF415AF03EB430200EBC2014F889E
:100D30009C463F0430F93230F1D5664581ED028B97
:100D4000EED0AEF800302989664620F83210A5F8BA
:100D500008C0E5E739F83A302B812B69EFF31082B0
:100D600072B6D3E8CF0F01210028FAD1C3E8401FA3
:100D70000028F6D1BFF35F8F6B88296929F83A30D4
:100D800000236E80C1E88F3F82F31088D6E640BF13
:100D900005B0BDEC028BBDE8F08F204603930192B5
:100DA00000F0BEFA019A039B10EB020E43EB010820
:100DB0002BE700BFAFF30080FFFFFFFFFFFFFFFF48
:100DC00000800B408026002000000B40F90A001034
:100DD00008460B69039198470028BBD00399D1E9D5
:100DE000002306E738B5384B1C692CB1BDE8384004
:100DF0000A213648FFF712BE0321354800F07EFA7B
:100E0000334D314BDD60FFF7C7FB324A4FF0504E98
:100E1000024403202C4B4FF00F0C18701A61DEF8BF
:100E200000204FF6FF715A705A69A3F802C014836C
:100E30004FF00204A2F848404FF00404A2F87840B2
:100E40004FF00504A2F890404FF00604A2F8A84025
:100E50004FF00704A2F8C0404FF00904A2F8F04098
:100E60004FF00A04A2F808414FF00B04A2F8204109
:100E70004FF00C04A2F838414FF0010414864FF0F3
:100E80000804A2F8D840144C4FF00D0E4FF00E0C91
:100E90009C6008249980A2F850E1A2F868C1A2F8E9
:100EA000600011800D4A2C620D49D360FFF708FCE9
:100EB00001210320FFF7C2FB0A4B0A211C640348EF
:100EC000BDE83840FFF7AABDBC0E0020A8260020D0
:100ED00000000B40CC1D0020FFFF100080260020EA
:100EE000F90A001000200B4000487047BC0E00209B
:100EF000F0B583B09DF828401D46034654B9CDE9AE
:100F0000000200F015FA019A009B824265EB010194
:100F1000A1425BDB1969EFF3108072B6D1E8CF6FA5
:100F20000124002EFAD1C1E8464F002EF6D1BFF3BE
:100F30005F8FB3F902401F69002C3EDBD3F814C069
:100F400004EB440E3CF83E10002659800CEBCE0119
:100F5000C7E88F6F80F310884888C1E90225013007
:100F6000C0F30E00012838BF0120089A48800A61AA
:100F7000099A40EA04404A611A69EFF3108172B697
:100F8000D2E8CF7F0125002FFAD1C2E8475F002FBA
:100F9000F6D1BFF35F8F9A882CF83E201A699C80A7
:100FA000C2E88F6F81F3108801211C78DA68A140B4
:100FB00002F50153596003B0F0BD0023C7E88F3F2D
:100FC00080F310884FF0FF3003B0F0BD204603B02F
:100FD000F0BD00BFF0B516461F4602690346EFF3A9
:100FE000108072B6D2E8CF4F0121002CFAD1C2E8AE
:100FF000441F002CF6D1BFF35F8FB3F902101D69B7
:10100000002945DBD3F814E001EB41023EF8324001
:101010000EEBC20C5C800024C5E88F4F80F3108873
:1010200005983546CCF8100006983E46CCF81400DA
:10103000BCF80200CCE902560130C0F30E000128D2
:1010400038BF0120ACF8020040EA0140D3F810C0DC
:10105000EFF3108572B6DCE8CF7F0126002FFAD1BE
:10106000CCE8476F002FF6D1BFF35F8FB3F804C011
:101070002EF832C099801A69C2E88F4F85F3108824
:1010800001211C78DA68A14002F501535960F0BDD6
:101090000023C5E88F3F80F310884FF0FF30F0BD8C
:1010A00003464089B0EB214F3ADD58690A1402EB40
:1010B000420210B5D3F810C000EBC200EFF3108E5F
:1010C00072B6DCE8CF4F0122002CFAD1CCE8442FD5
:1010D000002CF6D1BFF35F8F428889B292B28A4268
:1010E00007D000221B69C3E88F2F8EF310880020E1
:1010F00010BD6FEA42426FEA524242800121002253
:1011000018699971C0E88F2F8EF3108893F800C08A
:10111000DA68084602F5015301FA0CF1596010BD76
:1011200000207047407870472DE9F04182B00646B4
:1011300000F0FEF84FF47A7304464FF0FF306FF082
:101140000042E6FB0341A04272EB01033ABF0446B2
:1011500015460D46A61F45F1FF37B44275EB070350
:101160003CBF0026374600F0E3F8301A67EB010178
:10117000012871F1000106DA2046294602B0BDE8D7
:10118000F04100F0DFB800F0D3F8864267EB0101D0
:1011900000290ADB0021174B3246009316483B46D4
:1011A0000191FFF717FF0130E6D04FF0000C134A12
:1011B0001349536A9F4204D8906AB042DCD29F42DE
:1011C000DAD10B68EFF3108072B6D3E8CF8F5FF0FF
:1011D000010EB8F1000FF8D1C3E848EFB8F1000FE5
:1011E000F3D1BFF35F8F0B68C3E88FCF80F3108814
:1011F00020BFDEE7BD0A0010BC0E002000000B403F
:10120000A8260020EFF30582D2B282B1384B5A6A89
:101210008A4202D200221046704714BF01220022E7
:101220009B6A834228BF42F001021046704770B5A6
:1012300084B003922F4A0646D368157818460C46A8
:10124000029300F06DF8029B05F1040C53F82CC0DA
:10125000039AACEB000C301A64EB0101604571F1AC
:1012600000010FDB20BF224B596AA14207D314BFF4
:10127000012200229B6AB34228BF42F001021046BD
:1012800004B070BD029200F053F8864264EB010195
:101290000029029A1BDB18492346CDE900121548A4
:1012A0003246FFF797FE011E11DD114B5A6AA2422A
:1012B0001CD39B6AB34217D30E48FFF7F1FE0C4BC9
:1012C0005A6AA242D3D20022104604B070BD084B25
:1012D0005A6AA242F7D3121B18BF01229B6AB3427B
:1012E00028BF42F00102CAE7A242E5D120BFE3E7EE
:1012F00000000B40BC0E0020BD0A001010B4054BCE
:10130000054C064AA04214BF1846581C10BCFFF7F3
:10131000D5B800BFEC21002000800B408C5A001093
:101320000346416A0A46986A596A8A42FAD1704766
:10133000034B596A0A46986A596A9142FAD1704732
:1013400000000B40074A536A9942FCD8994207D1E2
:10135000044B02E05A6A914202D19A6A9042F9D84B
:10136000704700BF00000B4000EB400C4FEA8C0CB4
:101370000CF1804C0CF5803C70B51E46DCF8043056
:10138000041FB3F5803F38BF4FF48033E4B238BF59
:10139000CCF80430012C2ED94FF40065284B0CF505
:1013A000405ECEF8005053F820E0BEF1000F17D198
:1013B000DCF800E0012C8EEA421202F0E0020CF5AB
:1013C000805ECEF800202BD94FF4006143F82060F6
:1013D0004FF480330CF500521160CCF8043070BD2E
:1013E0005D69B5FBFEFE0EF1010E0EEB4E0EBEF179
:1013F000030EFCD2DCE70129CED103240CF54053C7
:101400001C60DCF80830DB07FBD5DCF800300CF59D
:10141000805E83EA421303F0E003CEF80030084B0D
:101420000122DCF800404C4004F00304CEF80040F8
:1014300002FA01F1DCF808200A42FBD0C4E700BF41
:10144000F0210020014B53F820007047F0210020CC
:1014500010B5029C8E464FEA043C4CEA034C1C4BF0
:10146000B3FBF1F30168B2FBF3F4002920DB194A66
:10147000194B904214BF4FF480424FF40042174979
:101480001A6003F580531A608B6832EA0303FBD1BC
:10149000212200F540530433C0F800E084601A6054
:1014A0000268002AFCDA0822C0F80CC01A6010BDDD
:1014B000036803F03F037345D9D18368C3F30B037B
:1014C000A342D4D1C36803F4EE236345CFD110BD4A
:1014D000001BB700008005400020024000000240D1
:1014E0004FF0804C214B00B5C3F800C0002839D024
:1014F000DFF888C0A3F54053C3F81CC0DFF880C0F4
:1015000040F0010080EA0C0CC3F820C059629862D8
:101510004FF0804E4FF0E061144B1548DFF864C087
:10152000C3F800E0C0F808C019602AB94FF00042C3
:10153000A3F580531A6000BD4FF47A7303FB02F2E7
:10154000B2F1807F2ABF6FF07F4313461A464FF0F7
:101550008041DFF834C00748CCF80030064B4260C9
:10156000196000BD034BD861D2E700BF00B00D4049
:1015700000A0014000800D4000A00D40D3C007B086
:101580002D3FF84FF3FFFF0158260020012300EB09
:101590004000800000F1804000F58410416003604D
:1015A000704700BF10B5002482B00B46E48A0021CA
:1015B00041E800F1CDE900034B0254BF10210421A2
:1015C00044F25220A047DDE9002386460A214FF469
:1015D0008170F44602B0BDE8104060470023DB8A0A
:1015E000002242E800F2520201D4102118470421DF
:1015F000184700BF08B503460846191E02DB1AB19A
:1016000040F03000FFF7CEFF40F02000FAE700BFC7
:10161000034AD2F82838002BFBD0BFF35F8F704706
:1016200000000E400021044B044ABFF35F8F43F8D3
:10163000041B9342F9D170470C080E402C080E4051
:101640004FF42A6C4FF48D70054A064B0649C2F8D8
:1016500000C0D06019605368002BFCDA704700BFEF
:101660000080044000A0044000B0FA00704700BFB2
:1016700008B50148FEF70AFFB05A001038B5054C0E
:10168000054DAC4204D254F8043B9847AC42FAD31F
:1016900038BD00BFE8590010285A00100648DFF88E
:1016A00028C0064B064A0749C0F800C01A608B687C
:1016B00032EA0303FBD170470020024000300240B1
:1016C000F6FFF303000002407F3BEFEF044BDB6CBF
:1016D000B3F5004F03D14FF48022024BDA64704718
:1016E00000001150002011504FF0E022044BD2F8BE
:1016F000881D0B43C2F8883D10EE3004704700BFD0
:10170000030330006FF06041044B054A1960936891
:10171000DB4333F06043FAD1704700BF0030024032
:101720000000024010B545F25320FFF757FFBDE817
:10173000104003460420184710B545F25320FFF728
:101740004DFFBDE81040034601201847FEF74ABF91
:101750001449154B70B55C1AA610442E324628BFAA
:101760004422124D9200284603F016FFB4F5867FFE
:1017700013D80F4A14D0C6F144002B19410803EBCB
:10178000C101C3E9002208339942FAD1C30704D545
:1017900020F00100304445F82020064B9D6070BDCC
:1017A0004320F8E7000000101001001000000020A6
:1017B0001101001000ED00E0002370B52B4C82B049
:1017C000C4F88430FFF73CFF0122294BDA63636CD5
:1017D000012BFCD10321264A244B11639C6B012C65
:1017E000FCD10226052521460523224A22480096DF
:1017F000FFF72EFE21462B46204A21480095FFF791
:1018000027FE0022042031461E4BFFF7ADFD214686
:10181000284600221C4BFFF7A7FD00220820114696
:101820001A4BFFF7A1FD002209201146174BFFF7C5
:101830009BFD002206201146134BFFF795FD002269
:10184000114B07201146FFF78FFD0420FFF7FAFD2B
:1018500000240F4BA3FB0035AD0CE0B22946013448
:10186000FFF794FE062CF8D102B070BD00000140D5
:1018700000300140002F685900000540008C864769
:1018800000800540001BB70080D1F008006CDC022E
:1018900083DE1B4310B5044603F028FB20B1044A45
:1018A0000319934200D810BD0248FEF7EFFD00BFB8
:1018B00000000820BC5A0010FFF7ECBF00B97047C9
:1018C00000F036B910B5094A84B014684CB103462B
:1018D00000914FF0FF3203A90548A047012004B052
:1018E00010BD00F067F9204604B010BD542600205A
:1018F000BD18001000BEFDE7074A0346106838B166
:10190000064903448B428CBF4FF0FF301360704791
:10191000034908461160F3E7502200200000082028
:10192000D026002008B5FFF7E5FF00BF38B5064C0C
:10193000064DFFF7A3FEAC4204D254F8043B98478F
:10194000AC42FAD338BD00BF285A0010305A0010FC
:10195000036808461146184770B505460846697D74
:1019600082B000294FD0002A25DD037814460A2BC7
:10197000064622D0012C4FF0000E0DD03246012336
:1019800012F801CF1946BCF10A0F03F1010320D070
:101990009C42F5D1744505DD2B68A4EB0E0106EBE6
:1019A0000E009847311911F8013CA3F10D03B3FA69
:1019B00083F35B092B7502B070BD2B7D002BD9D151
:1019C00002212B6813489847012CEBD04FF0010EF1
:1019D000D4E712F8010C0D28DAD08E4506EB0E0084
:1019E000A1EB0E0105DACDE900322B689847DDE95D
:1019F0000032CDE9003202212B6806489847009B4F
:101A0000019A9E46C4E711462B6802B0BDE87040BB
:101A1000184700BF081C01102DE9F04782B090461E
:101A20001C460D460746FFF783FC4FF0FF3C6FF066
:101A300000462E4A821841F10003944576EB0301DB
:101A40003CBF624633462A4803F0C2FF6B1C824605
:101A500040D00CB3274E284B1C68B4B1B8F1000F2E
:101A60001CD1DFF89C8001E0246974B12368002B4D
:101A7000FAD0D8F800300BB19C42F5D120462A4666
:101A80003946B0472469002CF0D1BAF1000F26D1B5
:101A9000284602B0BDE8F087184EDCE74FF00A098F
:101AA000DFF85C8002E02469002CEED02368002B74
:101AB000F9D0D8F800300BB1A342F4D12A46394608
:101AC0002046B047012220460DF107018DF807900E
:101AD000B047E8E7384603F0D5FD0546B9E70448C6
:101AE00003F066FF284602B0BDE8F08740420F00D1
:101AF0002819002059190010402200205119001007
:101B00004C220020084A136823B90AE003F11002AE
:101B10001B6933B18342F9D129B918691060196181
:101B2000704701B1106070474022002000F074BA85
:101B3000F0B583B006468DF80700FFF7F9FB4FF0CC
:101B4000FF356FF00044174A821841F100039542B7
:101B500074EB03013CBF23462A46134803F038FFC9
:101B6000124B07461C689CB1114D01E024697CB101
:101B70002368002BFAD02B680BB19C42F6D120468B
:101B800001220DF10701FFF7E7FE2469002CEFD1D8
:101B900017B9304603B0F0BD034803F009FF3046E3
:101BA00003B0F0BD40420F00281900204022002061
:101BB0004C22002038B5044603F064FD012305469D
:101BC0001A4620462946FFF727FF084B1C682CB110
:101BD00063682BB198472469002CF9D1284638BD99
:101BE0002469002CF4D1284638BD00BF40220020D3
:101BF000704700BF0022014B1A707047C9260020B1
:101C00004B79FF2B0BD1887948B9CB79012B07D1C0
:101C1000082A05D9034B8A7809201A7070470020DA
:101C2000704700BFC926002001207047012901D05C
:101C30000120704708B5104B91881B78994201D05C
:101C4000002008BD5378012B08D0022BF8D10021C9
:101C500064220846FFF744FC012008BD5188CB05EB
:101C600048BF480AC1F3402258BF4FF0FF3001F08F
:101C70007F01FFF7BFFC00BFC92600200048704766
:101C8000D41C0110012907D15378012B02D193886C
:101C9000072B03D000207047012070471146A62370
:101CA000014A01F08DBA00BF2C1C0110034601222D
:101CB00001481A70704700BF0C1C011008B50B6872
:101CC000B3F5966F00D008BD00224FF0FF301146EB
:101CD000FFF790FC024A034B10601960704700BF89
:101CE000E0210020E4210020184B70B51A68002A7A
:101CF00028D0EFF3108172B6D2E8CF4F0120002C2C
:101D0000FAD1C2E8440F002CF6D1BFF35F8F002256
:101D10000F4C186859602270C0E88F2F81F310882B
:101D2000002400250B4E3078FEF79EFC20B90024DD
:101D300000252046294670BD3078FEF7A5FC2046D8
:101D4000294670BD4FF47A740025EBE77826002011
:101D5000CB260020CA260020014B1878FEF794BC41
:101D6000CA26002038B5044600200D4601F062FB6B
:101D7000A8B3002001F074FB88B3FFF7D9FA4FF045
:101D8000FF3E6FF0004C174A821841F10003964560
:101D90007CEB03013CBF72466346134803F018FE18
:101DA000E8B1002001F046FB58B901464FF0FF3082
:101DB00000F02AFD6FF002040B4803F0F9FD204605
:101DC00038BD002001F04CFB0028EED021462A4609
:101DD000002001F04FFB04460028EDD1EAE76FF048
:101DE0000204ECE740420F00AC26002008B5FFF7E4
:101DF0009FFA4FF0FF3E6FF0004C0F4A821841F1FE
:101E0000000396457CEB03013CBF724663460B48DA
:101E100003F0DEFD70B14FF0FF30002100F0F4FC64
:101E2000002001F06DFB0028F5D1BDE80840034813
:101E300003F0BEBD08BD00BF40420F00AC2600202D
:101E40002DE9F04107460E46FFF772FA4FF0FF35D5
:101E50006FF00044324A821841F10003954274EB5E
:101E600003013CBF2A4623462E4803F0B1FD08B9C2
:101E7000BDE8F081002001F0DDFA002845D0002EF9
:101E80003EDD0025DFF8A48012E02246002001F0AC
:101E900081FB002105444FF0FF3000F0B5FC00202D
:101EA00001F02EFBFFF744FAC8E90001AE4227DD3E
:101EB000002001F08DFB741B8442A8BF04467919F1
:101EC000002CE2D121464FF0FF3000F09DFC20466F
:101ED00001F016FB204601F0ADFA88B1204601F072
:101EE00077FB0028E2D1FFF723FA0F4AD8F8003039
:101EF0009B18D8F8042042F1000283428A41D5D2CF
:101F00000848BDE8F04103F053BD0020BDE8F041B2
:101F10000021064BC3E90001024803F049BD00BFA0
:101F200040420F00AC26002020A10700781B0020B3
:101F300010B5002184B0324803F04EFD28BB314B70
:101F40001A6802B3EFF3108172B6D2E8CFEF5FF0F8
:101F5000010CBEF1000FF8D1C2E84ECFBEF1000F68
:101F6000F3D1BFF35F8FDFF8A8C0D3F800E09CF88F
:101F700000205960D3B201228CF80020CEE88F0FE8
:101F800081F31088CBB104B010BD00214FF0FF30B9
:101F900000F03AFC002001F063FA0446184803F010
:101FA00007FD002CEFD0184B1B68002BEBD0174A15
:101FB000106804B0BDE810401847FEF795FF0446CE
:101FC000FFF7B6F94FF0FF3E6FF0004C10F57A7254
:101FD00041F1000396457CEB030138BF63464FF0A7
:101FE00000014FF0010C38BF7246DFF828E02046B0
:101FF000CDE9011CCDF800E0FEF77AFF04B010BD7A
:10200000AC26002078260020E0210020E4210020DA
:10201000CB260020E91C00104FF0504330B585B0AE
:102020001C68FEF761FFFFF77DF8A04202D0002098
:1020300005B030BD00212C4B08461B7801F0ACFDEB
:102040002A480368002B4BD00120FEF7D1FC034641
:10205000274C2849C0B22370FEF732FB20780121BB
:10206000FEF7ECFA0E20FEF71BFB60BB224B6FF075
:102070000044C3E90000FEF737FF0546FFF758F9B3
:102080004FF0FF3C10F57A7241F10003944574EB78
:10209000030138BF23464FF000014FF0010438BF61
:1020A0006246DFF860C02846CDE90114CDF800C0D3
:1020B000FEF71EFF0028BADB01211048FFF722FDC2
:1020C000012005B030BD0120FEF772FA01460A4832
:1020D000FEF7ECFC00220E200949FEF729FBEBE796
:1020E000FEF7C8FCB0E700BF241E0110AC2600209C
:1020F000CA260020311F001078260020D40E0020B0
:10210000591D0010E91C001000487047701D011097
:10211000004870471C1D011000B51C4A0346117889
:1021200083B031B363B940F209424FF44173DFF831
:1021300060C0ACF802201648ACF8003003B000BD17
:10214000052B20D8134ADFF848C052F82310604608
:102150000023013903E0132B20F8022F10D011F8CF
:10216000012F0133DBB2002AF5D15B0043F4407349
:10217000E1E701901121104600F024F8019BD1E71E
:102180004FF44A73D7E70020D8E700BFB4260020F9
:1021900018220020041D011000B545F247308BB015
:1021A000FFF71CFA01220346092101A89847DDE93F
:1021B0000332034912BA1BBAC1E900230BB000BDB8
:1021C000A0260020012900F0BB80614A0139137864
:1021D0004FEA231CBCF1090FCCBF0CF1370C0CF1FA
:1021E000300C012980F800C000F0AD8003F00F032F
:1021F000092B8CBF373330330229437000F0A380A2
:1022000053784FEA231CBCF1090FCCBF0CF1370CFB
:102210000CF1300C032980F802C000F0948003F028
:102220000F03092B8CBF373330330429C37000F000
:102230008A8093784FEA231CBCF1090FCCBF0CF1C4
:10224000370C0CF1300C052980F804C07BD003F06A
:102250000F03092B8CBF373330330629437172D0FB
:10226000D3784FEA231CBCF1090FCCBF0CF1370C1B
:102270000CF1300C072980F806C064D003F00F037E
:10228000092B8CBF373330330829C3715BD01379E6
:102290004FEA231CBCF1090FCCBF0CF1370C0CF139
:1022A000300C092980F808C04DD003F00F03092B2A
:1022B0008CBF373330330A29437244D053794FEA05
:1022C000231CBCF1090FCCBF0CF1370C0CF1300C06
:1022D0000B2980F80AC036D003F00F03092B8CBFFE
:1022E000373330330C29C3722DD093794FEA231C36
:1022F000BCF1090FCCBF0CF1370C0CF1300C0D29DF
:1023000080F80CC01FD003F00F03092B8CBF3733AC
:1023100030330E29437316D0D3791A11092ACCBF52
:10232000373230320F2982730DD003F00F03092B9F
:1023300094BF303337331029C37318BF103002D025
:10234000002303707047002308440370704700BFE8
:10235000A026002010B500F039F90C231C4CFF22F8
:10236000A3670E201B49FEF7E3F9402200211A481B
:1023700003F0A4F84FF0800C0120174A0023A2F8C4
:1023800022C0507010464022144902830287144A2A
:1023900081604360C2F88430C2F8803080F8213018
:1023A00080F83B3043620F4BC360C362803B836263
:1023B00003F006FB4FF0005C4FF4803201200A4925
:1023C0000A4B2064C4F84CC0C4F89010DA6410BD05
:1023D0000000115099030020542200208400105066
:1023E000000010500001105010D0010000201150CA
:1023F00001210E20FEF722B900220248114600F00A
:1024000005B900BF74220020044B197021B14FF4AC
:102410000032034BC3F89020704700BFC62600204F
:10242000002011500B785B0600D070474B78052BCD
:10243000FBD14B88014ADBB21360F6E70000115074
:10244000CB7803F0030CBCF1010FC3F3010062D0A1
:102450002DE9F041002691F802E0364C0EF07F02A3
:1024600053008988984603EBDE1304EB43134FEACD
:10247000DE15D876C1F30A0185F0010083F802E089
:1024800019835870DE70D300002D32D12A480433EE
:1024900004EB821E1F18CEF808701E5092B3274B13
:1024A00003EBC203CEF804303F318909BCF1020FBF
:1024B00014BF8B01CB01224908EB05060A6804EB27
:1024C000461613440B601F49F2608B422DD808EB6F
:1024D000050304EB4314E17E82F0A04282F48012F3
:1024E000636842EA816242F0004201201A60BDE85E
:1024F000F081114804EB821E0344CEF8283040F8E6
:10250000326052B91346104A04EB45140120E260D0
:102510006360BDE8F08100207047D20002F1A04264
:1025200002F58012CEF82420BEE7FFF7A1F8F2688A
:10253000CDE700BF5422002080001050040010504E
:102540005C260020FF0F10500001105003F038BA35
:1025500008B59646DFF81CC001F07F02C80900EB01
:1025600042000CEB40101A46714600F04FF8012073
:1025700008BD00BF5422002011F07F0205D10029C0
:102580000CBF02200120064B9866C909054B01EBE0
:10259000420003EB40104FF40062002103F014BA34
:1025A000002011505422002011F07F0300D1704709
:1025B000002205485B0003EBD11300EB43106FF4DE
:1025C0000061C27003F000BA542200204FF0805224
:1025D00009480A4908B50A4B02600A609968C9436C
:1025E00011F08051FAD14FF48052064802F066FF94
:1025F0000922054B5A6708BD002002400030024006
:1026000000000240000010500000115000234FF065
:10261000010C10B5016180F81AC08282C3820446A1
:1026200003F0CAF920B14FF40032074BC3F89020F1
:10263000204603F0B5F910B10123237710BD2046E1
:10264000BDE8104003F0B0B9002011502DE9F04171
:1026500000241C4D064623462A78DFF878801A4F5E
:102660000DE03B6813EB441323D0DB6830469847FA
:102670002A780134E4B2511CA142234606DBA2426F
:10268000A3EB0203EDD808EB4313EEE7542200213D
:102690000E4802F013FF4FF0FF330C4C2022C4E928
:1026A0000133C4E90333FF21BDE8F041084802F0DB
:1026B00005BF4FF0E023D3F8F03DDB0700D500BEA7
:1026C000BDE8F081C5260020F01C0020F81D002088
:1026D0000C1E0020841D0110704700BF704700BF12
:1026E0000020704700207047704700BF704700BF50
:1026F000704700BF704700BF024B5878003818BFC2
:1027000001207047F81D0020024B1878C0F38000AC
:10271000704700BFF81D00202DE9F047DFF8E48086
:1027200098F80030FF2B53D100293CD054228A4620
:1027300081460021284802F0C1FE0022274C284B88
:1027400020461A70FEF796F9264B27481C60274C46
:10275000FEF79EF9204601F017FE254A254B14602E
:1027600023B12548FFF7A2FA244B18600024224D1C
:1027700023462A78224F214E0DE0336813EB441391
:1027800011D05B687BB198472A780134E4B2511CC0
:10279000A142234611DBA242EFD89B1A07EB431359
:1027A0005B68002BEFD14FF0E023D3F8F03DDB075F
:1027B00000D500BE0020BDE8F0875146484688F8A5
:1027C0000090FFF7C7FD0028EDD04846FFF710FE48
:1027D0000120BDE8F08700BFF81D0020F01D00209B
:1027E000C72600204C1E0020000F0020EC0E002009
:1027F000501E0020AD1C0010C5260020F01C00203B
:10280000841D0110080F0020954B1B78FF2B00F052
:1028100019812DE9F04F934C934DDFF86082934F6F
:102820008BB026687369EFF3108272B6D3E8CF0FCE
:1028300001210028FAD1C3E8401F0028F6D1BFF3D8
:102840005F8FB261304607A901F0E4FB0023726993
:10285000C2E88F3FB36983F31088002800F0CA8074
:102860009DF81D30013B072B00F29E83DFE803F04B
:10287000A5AF939B8C350A04089B002BD1D00998F7
:102880009847CEE79DF8201001F07F0605EB460043
:1028900000EBD11090F8343023F0010380F834308D
:1028A00090F8343023F0040380F83430002E00F028
:1028B000A480037D98F80020934280F091806C4AB8
:1028C000126812EB431300F08E809E699DF8212060
:1028D000099B9DF81C00B047A3E73B78002B00F054
:1028E00082803B78013B3B703B7803F0FF00002B7C
:1028F00097D1DFF874A19DF81CB09AF8003043F02E
:1029000001038AF800309AF8343060F300038AF843
:1029100034309AF8343060F382038AF834309AF80D
:10292000353060F300038AF835309AF8353060F3BB
:1029300082038AF8353000F0A7FC9DF8203003F0C0
:102940006002602A6CD0402A7DD003F01F03012B67
:1029500000F0C380022B00F09380002B60D1202A6E
:1029600000F00282002A5BD19DF82130092B57D854
:10297000DFE813F0BF01AF015600D1015600A001FE
:10298000760156006A01F9002B78D9077FF549AF27
:10299000FFF7B0FE45E7EB78DA077FF542AF08981E
:1029A000FFF79CFE3DE72B78D8077FF53AAF2878F4
:1029B000C0F3C000FFF79CFE33E79DF81C00FFF753
:1029C00045FE00F057FC9DF82030AB7029E79DF8DC
:1029D0001C00FFF73BFE00F04DFCFFF787FE20E7F1
:1029E000501C984211DA4FF0E023D3F8F03DDC0799
:1029F00000D500BE0BB0BDE8F08F099B9DF82120EB
:102A00009DF81C0000F054FC0BE79B1A194A02EBDE
:102A100043135AE7FFF77CFB0246002840F09481FD
:102A20004FF0E023D3F8F03DDE0700D500BE9DF85F
:102A30001C000021FFF7A0FD80219DF81C00FFF77E
:102A40009BFDEEE670470C4800F01EFC0121584645
:102A500008AAFFF717F900287FF4E3AEE7E700BF05
:102A6000080F0020501E0020F81D0020C72600205F
:102A7000F01C0020841D0110851C0010C5260020BC
:102A80009DF8241011F0700FCAD1B44801F07F03F3
:102A900090F800C00AEB430000EBD110007D6045C8
:102AA0004DD30CF1010E8645C0F27081A0EB0C00F5
:102AB000DFF8ACC20CEB40100090002A00F06A81F5
:102AC000009E706900F0E0FB01215846736908AA76
:102AD000984700287FF4A5AEA9E79DF824300F2B76
:102AE000A5D89E4A53441B791278934235D3511C82
:102AF00099429CDB9A4E9B1A06EB4316706900F0D4
:102B0000C3FB01215846736908AA984700287FF43F
:102B100088AE9DF8203013F0600688D19DF82130F2
:102B20000A3B012B83D800F0AFFB9DF821300A2B24
:102B300000F01382584608A900F026FB71E6DFF882
:102B400024C2DCF800C00CEB40100090002A00F01A
:102B5000218100283FF46BAFB2E7824A166816EB7A
:102B60004316CBD163E79AF801209DF822309342B7
:102B700000F064819AF80120002A40F0D8818AF898
:102B80000130002B00F05881013BD8B2FFF7C0FAAA
:102B9000002800F074814378022B40F07081C279E4
:102BA0009AF80010C2F340131B01C2F3801221F007
:102BB000300143EA42130B438AF80030438800F1A6
:102BC0000901C3180293029B8B4240F2C3814B78E8
:102BD0000B2B00F0CC810120042B40F0508100220F
:102BE000029B00925B1A1FFA83F95C4B01921B78DF
:102BF00003901FE05B4B1B6813EB421300F03F8117
:102C00004A461E69584605910493B0470246009B08
:102C1000082A059903F1010003D99145049B80F02E
:102C200012814E4BC0B21B7800905A1C904201900A
:102C300000F32581009A01989342A0EB0303D9D8B1
:102C4000474A02EB4313DBE79AF8013058468DF808
:102C50001A300DF11A02012308A900F0B1FAE0E5DB
:102C6000BDF82200030A5A1EC0B20E2A3FF6DFAE9C
:102C700001A151F822F000BFB12E0010372D001035
:102C8000ED2E00102F2A00102F2A0010CF2E00103A
:102C9000372D00102F2A00102F2A00102F2A001085
:102CA0002F2A00102F2A00102F2A00102F2A001080
:102CB000A32E001008A800F0EDFA58469DF8221047
:102CC000FFF79AFB9AF8003043F002038AF80030CD
:102CD000A7E5BDF82230012B7FF4A9AE9AF80030A9
:102CE000584623F0080308A98AF8003000F04CFA8F
:102CF00097E558469AF800309A0802F00202C3F3AA
:102D000040131343ADF81A300DF11A02022308A93B
:102D100000F056FA85E5BDF82230012B7FF487AE2E
:102D20009AF80030584643F0080308A98AF80030A2
:102D300000F02AFA75E5022B3FF46CAEFFF7D2FCE7
:102D4000024600283FF473AE5846538808A900F0A5
:102D500037FA00287FF465AD69E600BFC52600207C
:102D6000841D0110F01C00209DF824300F2B3FF62D
:102D70005EAE924A53441B79127893421ED2904A17
:102D8000166816EB43167FF49CAE50E6002A7FF4DB
:102D90004EAE00929DF821C00CF0FD02012A16D023
:102DA000BCF1000F7FF43CAE0AEB430303EBD113FD
:102DB00093F834305846C3F34003A3E7511C9942BB
:102DC000FFF635AE7F4E9B1A06EB431679E6BDF84B
:102DD0002220DAB97C48BCF1010F007800F08E8027
:102DE000CDE90113FFF7C8FB029B01990AEB4303EE
:102DF00003EBD11393F8342042F0020283F834201D
:102E000093F8342042F0010283F83420009B002B19
:102E10003FF407AD1E46586900F036FA7369012188
:102E200008AA58469847002000F02EFA9AF8353044
:102E3000DB073FF5F6AC7DE6FFF758FC584608A9DE
:102E400000F0A2F9EDE40398012800F0A680002824
:102E500000F09280002391F802E007E0009E8CF8D9
:102E600004605FFA83FC604540F286800EEB030C41
:102E70005AFA8CFC9CF804600133FF2EEED04FF020
:102E8000E023D3F8F03DD90700D500BE4FF0E02392
:102E9000D3F8F03DDA0700D500BE00238AF80130F0
:102EA000C5E5FEF7EBFE024600287FF44DAFBEE518
:102EB000FFF72AF9024600283FF4B2AD5846122324
:102EC00008A900F07DF900287FF4ABACAFE5FFF76F
:102ED00007FC024600283FF4AAAD5846137808A91B
:102EE00000F06EF900287FF49CACA0E5BDF824103A
:102EF000FFF712F902460028EFD198E5CDE902323A
:102F00000191FFF751FB029B01990AEB430303EB8D
:102F1000D11393F83410039A62F3410183F834100B
:102F200093F8341062F3000183F834106EE7002147
:102F300058460193FFF768FA5846FFF707FB9AF8DF
:102F4000022058460092FFF781FB009A019B8AF805
:102F5000022014E6FFF7C8FB70E75846012308A9D2
:102F60000DF11A028DF81A6000F02AF959E40B7875
:102F7000C87819444B782FE6009B144803920091BF
:102F800000F0BCFE0D4B039A00991B781144019A86
:102F900001339342BFF617AE71E7D3F810C00C4B64
:102FA0009C4508BF022055E74FF0E023D3F8F03DE1
:102FB000DB077FF536AC00BE33E400BFC52600203A
:102FC000F01C0020841D0110080F00200C1E0020A2
:102FD000D93600102DE9F84F0A9F002A40D00C4640
:102FE0001E4615464FF0000BDFF88090DFF880801A
:102FF00016E0204698F8021099F800A000F04EFE66
:10300000D0B121465046FFF71BFAE0B1A3780BF18F
:10301000010BDA0920D1AB453B7021D023781C4449
:103020006378052B0FD1E17801F00301B1420AD199
:10303000A37813F0700FDCD04FF0E023D3F8F03D0D
:10304000DA0700D500BE4FF0E023D3F8F03DDB07F0
:1030500009D40020BDE8F88F0B9AAB451370DDD181
:103060000120BDE8F88F00BEF3E700BF080F002085
:10307000F81D00208B7813F0700F08D04FF0E0237C
:10308000D3F8F03DDA0700D500BE0020704710B538
:1030900082B0084601910C490C4A8978147800F0F6
:1030A000FDFD48B94FF0E023D3F8F03DDB0700D534
:1030B00000BE002002B010BD2046019902B0BDE85C
:1030C0001040FFF7BDB900BFF81D0020080F002019
:1030D0000A46064B06481968D309343302F07F02CA
:1030E00003EB4203184400F08DBD00BF4C1E0020CE
:1030F000F81D00200A46064B06481968D3093433E8
:1031000002F07F0203EB4203184400F0ABBD00BFA6
:103110004C1E0020F81D002010B5194801F07F0456
:1031200000EB440000EBD11090F834C01CF0010F0C
:1031300008D04FF0E023D3F8F03DDA0700D500BE09
:10314000002010BD00F1300494F804C00D484CF08C
:10315000010C007884F804C0FFF7FAF90028F0D1D8
:103160004FF0E021227960F300022271227960F3AE
:1031700082022271D1F8F03DDB07E1D500BEDFE726
:10318000F81D0020080F0020DFF830C00023624641
:1031900010B58E46044608684968CCF80C3003C266
:1031A0009EF800102046BDE8104081F0FF011A464D
:1031B00001F08001CCF80830FFF7AEBFB81D002049
:1031C000DFF8ACC070B51546624600248E46064650
:1031D0000868496882B003C2CCF80850ACF80E40C9
:1031E000BEF80620934228BF1346ACF80C308AB1D3
:1031F00033B3DDB19CF90020402B28BF4023002AC7
:1032000029DB21463046194AFFF786FF70B10120BD
:1032100002B070BD9EF80010134681F0FF013046E9
:1032200001F08001FFF778FF0028F0D14FF0E02394
:10323000D3F8F03DDB0700D500BE002002B070BD22
:103240001A469CF8001001F080013046FFF764FF39
:103250000028DCD1EAE71A4629460448019302F027
:103260009BF98021014A019BEFE700BF781D0020F8
:10327000B81D00200022034BC3E90022C3E902224B
:103280001A617047B81D0020014B1861704700BFDC
:10329000B81D00200146054A4FF0000C1346006897
:1032A0004968C2E902CC03C3704700BFB81D0020C3
:1032B00030B53E4CC90922780546B1EBD21F83B028
:1032C00017D053B14FF0E023D3F8F03DDB0702D421
:1032D000002003B030BD00BEFAE72146FFF7A2F898
:1032E00023691BB12246032128469847012003B0D9
:1032F00030BD94F90020002A08DBA0680028E7D040
:103300001A462B49019302F047F9019BE089A16815
:10331000E288184480B219448242E081A16016D04C
:103320003F2B14D9A28994F90040131A9BB2402B69
:1033300028BF4023002C28DB90424FF0000132D000
:103340001B4A2846FFF7E8FE0028CFD1BAE72369D9
:1033500023B102212846154A984768B100232178F5
:10336000284681F0FF011A4601F08001FFF7D4FEE4
:103370000028A7D00120BAE701462846FFF7FCF84D
:1033800080212846FFF7F8F8B0E7904208D01A46A7
:103390000748019302F000F98021054A019BD0E71C
:1033A00080210022CDE70A46CBE700BFB81D0020F0
:1033B000781D002070B582B00446FFF79DF908B96A
:1033C00002B070BDFFF7A0F902460028F8D1C8236B
:1033D00004FB03F315492546CC18E0780028EFD00C
:1033E00010335E183046019200F002FE3F28E7D904
:1033F000E1780198FFF76CFE0028E1D0304600F03C
:10340000F7FD3F28E1780AD94023DFF824C001986E
:103410000CEBC51202B0BDE87040FFF77DBE01980D
:1034200002B0BDE87040FFF765BE00BF3019002054
:10343000F41C002010B50446FFF75EF908B900201F
:1034400010BDFFF761F90028F9D1C822034B02FB38
:103450000433187900F0010010BD00BF30190020BE
:10346000C82208B5024B02FB003000F0A7FD08BDE2
:10347000401900204FF6FF732DE9F041C8249A420D
:1034800028BF1A4600FB04F41B4D04F1100382B060
:10349000804692B258195F1900F00AFE0646FFF7FF
:1034A0002BF918B9304602B0BDE8F081FFF72CF9CE
:1034B0000028F7D12544EA78002AF3D00190384655
:1034C00000F096FD3F28EDD90198E978FFF700FE5E
:1034D0000028E7D0384600F08BFD3F28E97807D96F
:1034E000064A4023019802EBC812FFF715FED9E700
:1034F0000198FFF7FFFDD5E730190020F41C0020EC
:10350000F0B583B00546FFF7F7F810B9002003B017
:10351000F0BDFFF7F9F804460028F7D1C82305FBF2
:1035200003F31A4A03F124018F183846009300F080
:1035300045FD0028EAD0154A009B2046D618B178F0
:10354000FFF7C6FD0028E1D01149384601EBC5114F
:103550004022009100F0ACFD96F802C0034670B125
:10356000019061462046009AFFF7D6FD58B94FF00A
:10357000E023D3F8F03DDB07C8D500BEC6E76146BF
:10358000FFF7B8FDC2E70198C1E700BF301900207E
:10359000341D002070B505464FF6FF70C8238242E7
:1035A00028BF0246094C92B203FB0544204600F0B6
:1035B00043FE0646204600F001FD3F2801D8304674
:1035C00070BD2846FFF79CFF304670BD541900209F
:1035D000C82208B5024B02FB003000F009FD08BD0F
:1035E0005419002070B5002482B0C8220021184868
:1035F00001F064FFFF234FF4E13108221548047005
:1036000013480094064643718160827300F13801CB
:1036100001234022103000F0A1FC0123402206F1DA
:103620007801009306F1B80506F1240000F096FC3D
:103630002846FDF71FFA06F1C000FDF71BFA06F158
:10364000C000C6E90745C6E90C0402B070BD00BF62
:1036500030190020741D00200A4B196B1A6A61B1E1
:103660003AB10022C3E90C22DA6100221A62012079
:1036700070470120C3E90C227047002AF7D0D961B6
:10368000F3E700BF301900200022104908B51048A8
:103690000B7802600271DA0707D59B070CD5BDE8ED
:1036A000084001210B4800F08BBE103000F06CFE8A
:1036B00006490B789B07F2D4064800F065FEBDE88A
:1036C00008400121034800F07BBE00BF741D0020AC
:1036D000301900205419002070B54B7984B0022BAA
:1036E00002D18B79022B03D00024204604B070BD98
:1036F0002B4B9B783BB14FF0E023D3F8F03DDB0739
:10370000F2D500BEF0E78B780546254803700B78AC
:10371000194491F801C0BCF1240F08BF092409D055
:103720003BE00B78194491F801C02344BCF1240F0D
:103730009CB207D19442F4D90020FFF73BFE20460B
:1037400004B070BD6346BCF1050F16D0042BF3D155
:103750004B790A2BF0D1134B0A7801930133009374
:1037600002231646114428461A46FFF733FC002868
:10377000C1D00E3433199CB2DEE728460391FFF71F
:1037800079FC03990028B6D08B78054A53700B78E2
:103790001A1919444B7894B2D8E763460924D2E742
:1037A0003019002032190020137803F06003202B19
:1037B0000BD100B5DFF8BCC093889CF800E083B063
:1037C0009E4504D0002003B000BD00207047537810
:1037D000203B032BF6D8DFE803F02C270D0201294C
:1037E00033D0032922D11E4B03B300205188AFF3FD
:1037F00000801BE0012928D0032917D152881948DD
:1038000002F0010383F0010101938CF8042000927F
:1038100000F0D6FD144949B1009A00200199C2F385
:103820004002AFF3008001E0012912D0012003B073
:1038300000BD01290DD00329F8D10C4B002BF5D088
:1038400000200B49FEF73AFAF0E71146FFF79CFC1F
:10385000ECE711460723064AFFF7B2FCE6E700BF94
:10386000000000005419002000000000BD1C0010E2
:1038700038190020301900202DE9F041354C0D4653
:10388000E27807468A421E4682B02FD0A3788B4248
:1038900009D04FF0E023D3F8F03DDB0724D400201B
:1038A00002B0BDE8F0812C4B13B10020AFF30080D3
:1038B0000020FFF725FE002847D1284800F07EFBB6
:1038C000002842D1002E40D016F03F053DD13846A9
:1038D000A178FFF7FDFB002837D02B462A46384653
:1038E000A178FFF719FC30E000BED8E79AB21C4976
:1038F00004F1100000F0A0FC1A4BD3B16279FF2A4A
:1039000017D0B6B1164B03EB060802E0434510D0C2
:10391000627913F8011B9142F8D11348019300F02A
:103920005DFB019B0028F1D16179AFF30080019B21
:10393000ECE70E4B1BB10C4800F050FB38B10020F7
:10394000FFF738FDA378AB42ADD00120A8E7AFF375
:103950000080F4E730190020000000005419002016
:10396000F41C0020000000004019002000000000AE
:10397000F0B54FF4137285B00021124801F09EFD9E
:10398000402600234FF480750E4F0F4C07F5A672AA
:103990001946CDE90246009201951A4607F5947042
:1039A00000F0D6F9002307F12801344400910122E8
:1039B0001946CDE902460195381D00F0C9F905B058
:1039C000F0BD00BF941F0020141F002008B504485C
:1039D00000F0EAF9034800F0E7F9012008BD00BF54
:1039E000BC200020981F002038B50025064C04F5A7
:1039F0009870257000F0C8FC04F10C0000F0C4FCC5
:103A000084F82951657138BD941F00202DE9F843D1
:103A10004B79FF2B05D1354F7E7997F829311E431D
:103A200002D00020BDE8F8838B780C783B700B79CE
:103A3000814688460C44002B34D0A51803E0AC42E4
:103A400030D223781C446378052BF8D1AC4229D2BC
:103A500021464846FFF70EFB00283ED0A378DB093D
:103A600025D1234800F090FCA37897F8282187F807
:103A70002931A3884846C3F30A03A3F50073B3FAB8
:103A800083F35B0963F341021A4987F8282100F0A8
:103A9000FDF910B3237898F8042001361C44F3B2E2
:103AA0009A42D0D8A4EB080080B2BDE8F88312484F
:103AB00000F06AFCA3783A797B71A3880F49C3F3BD
:103AC0000A03A3F50073B3FA83F35B0963F34102BE
:103AD00000203A7100F0A0F9DCE74FF0E023D3F8C2
:103AE000F03DDB079DD500BE9BE700BF941F002083
:103AF000C4200020BC200020A01F0020981F002010
:103B000010B5DFF890C004469CF8292182B08A42A3
:103B10001AD09CF805208A4202D0002002B010BDC5
:103B2000174A2AB199B200200193AFF30080019B9C
:103B300020461449019300F06FF998B92046019A84
:103B4000104900F033F90DE0BCF834216AB90E4A8F
:103B500022B100200D499AB2AFF3008020460C49F3
:103B600000F094F9012002B010BD9AB2DCF82C11DB
:103B70000CF59870019300F05FFB019BE7E700BF35
:103B800000000000981F002000000000141F00200B
:103B9000BC200020941F002000B583B0D9B10128BB
:103BA0000ED80B7863B1DFF858C0012B0CF8003049
:103BB00002D0012003B000BDFEF7AEFD0028F8D111
:103BC0004FF0E023D3F8F03DDB0702D4002003B030
:103BD00000BD00BEFAE70122084601A9ADF80420A5
:103BE000FEF79AFD012238B94FF0E023D3F8F03DFB
:103BF000DA07ECD500BEEAE7014B1A70E7E700BF31
:103C0000EC1D0020037813F001031ED130B50246ED
:103C1000007883B00446400702D5184603B030BD93
:103C200008460D464FF0FF31019201F0B5FE019AB2
:103C3000137813F001030BD1117849070AD41178D6
:103C4000012341F00401117004E00023184670477D
:103C5000C4F380032846019301F0AAFE019B184695
:103C600003B030BD70B50D4604464FF0FF31284615
:103C700001F092FE2378C3F380065B0708D5237812
:103C800013F0010311BF0026227863F38202227031
:103C9000284601F08DFE304670BD00BFC378828893
:103CA00003F003000228C2F30A0215D003280AD049
:103CB00001281CD1022940F2FF3308BF4FF4806372
:103CC00093420DD37047022914BF40234FF4806301
:103CD000934205D30120704702290AD0402AF9D91E
:103CE0004FF0E023D3F8F03DDB0700D500BE002005
:103CF0007047B2F5007FEDD0F2E700BF0A44914271
:103D000025D291F801C0BCF1050F05D091F800C093
:103D100061448A42F5D8704700B591F802C00CF0B2
:103D20007F0E00EB4E0E4FEADC1C0EF80C3091F8C3
:103D300000C061448A4209D991F801C0BCF1050F65
:103D4000EBD091F800C061448A42F5D800BD7047BD
:103D500070B584B0009390F800C0164661F3000C73
:103D6000BDF8242004460123089900F808CBBDF8CB
:103D70002C50039200F0F2F8089B0BB1039A2AB979
:103D800001200A9B6580636004B070BD04F11C00D3
:103D90000390FCF76FFE03981EB93346C4E9053063
:103DA000EEE703460020F9E70120704770B50646AC
:103DB000084640F2FF130C4610F8081B82B011F0C1
:103DC000020F01920CBF3F251D4600F0F7F8019A43
:103DD00028B922B1154202D12378DA0702D5002092
:103DE00002B070BD30466178FFF772F90028F6D056
:103DF000237813F0010307D04FF0E023D3F8F03D10
:103E0000DB07ECD500BEEAE71A4630466178FFF7DB
:103E100083F90028E4D1EFE770B5054682B001F1DF
:103E200008000C4600F0CAF810B12378DA0702D572
:103E3000002002B070BD28466178FFF749F90028DC
:103E4000F6D06288616804F1080000F031F9227848
:103E5000034602F0010240B172B14FF0E023D3F803
:103E6000F03DDB07E4D500BEE2E7002AE0D12846BA
:103E70006178FFF73FF9DBE70190626828466178D7
:103E8000FFF74AF90028E8D00198D2E72DE9F04180
:103E90008A890C4605460B7882B02AB9DE0737D5E9
:103EA000002002B0BDE8F081990704F1080047BF87
:103EB0004FF47E484FF400764FF6C078402600F06D
:103EC00097F8864204F10807EAD82378DA07E7D49E
:103ED00028466178FFF7FCF80028E1D0384600F06A
:103EE00087F82378864203F001032ED8C3B963888C
:103EF00008EA0002934228BF13466178002B2BD0BA
:103F0000626828460193FFF707F948B10198C8E7AE
:103F10004978FFF7DDF80028C2D02378D80707D505
:103F20004FF0E023D3F8F03DDB07B9D500BEB7E78B
:103F3000638861783BB162682846FFF7EDF8002896
:103F4000EED06088ADE71A46F6E7002BA8D12846E8
:103F50006178FFF7CFF8A3E71A46D2E72DE9F041E1
:103F6000B2F5004F9DF8185024D80446C068984612
:103F70000F46164618B14FF0FF3101F00DFD2069D4
:103F800018B14FF0FF3101F007FD0022C8F30E0316
:103F9000E06843EAC53362812760A680E38022811E
:103FA00008B101F005FD206908B101F001FD012013
:103FB000BDE8F0810020BDE8F08100BF038942899F
:103FC0009BB292B28088934236BFC2EB40029B1AEA
:103FD0009B189BB2984228BF1846704702894389B4
:103FE00090B29BB2C01AB0FA80F04009704700BF8F
:103FF000038942899BB2808892B2934236BFC2EB5A
:1040000040029B1A9B189BB2984286BFC01A80B28E
:104010000020704730B5044600690D4683B018B1E2
:104020004FF0FF3101F0B8FC2289618992B289B268
:10403000A3888A4236BFC1EB4300501A801880B271
:1040400068B3834209D29A422CBFD21AD21891B2D5
:104050008B42618103D8C91A89B28B42FBD9E288AD
:104060002368C2F30E0202FB0131284601F094FAE4
:104070006289A38892B2511C89B28A424FF0010230
:1040800010D9002103FA02F0091A2069618118B1E0
:10409000019201F08DFC019A104603B030BD02463A
:1040A000618989B2B1EB430F4FEA4300EDDBEBE7E7
:1040B0002DE9F04105460069884682B028B14FF0ED
:1040C000FF31009201F068FC009A29896B8989B25E
:1040D0009BB2AC88994236BFC3EB4406CE1A761821
:1040E000B6B2002E4BD0B44241D3B24228BF3246C2
:1040F0009C4296B203D81B1B9BB29C42FBD9B5F8DD
:1041000006C0E01A296880B2CCF30E028642174638
:1041100002FB031125D910FB02F2404692B2019333
:10412000009201F039FA019B009A341B234408EBFA
:10413000020013FB07F2296892B201F02DFA6A8996
:10414000AC8892B293199BB29A421AD962009B1A18
:1041500028696B8108B101F02BFC304602B0BDE844
:10416000F081404606FB02F201F016FAE7E7A142B1
:104170002CBF091B09198BB226466B81B5E76B89E9
:104180009BB2B3EB440F4FEA4402E1DBDFE700BF31
:1041900070B50446C0680E4682B018B14FF0FF31CA
:1041A00001F0FAFB2589238961899BB289B2A28833
:1041B0008B4236BFC1EB42015B1A5B189BB29A423D
:1041C000ADB20BD8E179C90908D1E06818B1019105
:1041D00001F0EEFB0199084602B070BD954228BF80
:1041E0002B4617D39B1A9BB29342FBD2E2882068DE
:1041F000C2F30E0202FB0300314601F0CDF96B1C45
:104200009BB29D42A28811D9002351005B1A012163
:104210002381DAE7E2882068C2F30E0205FB020080
:10422000314601F0B9F90135A288ABB2B3EB420FC8
:104230004FEA4201EBDBE9E72DE9F047154682B092
:10424000002A4AD00446C068884618B14FF0FF31B2
:1042500001F0A2FBE17926896389C909A288B6B277
:104260009BB23ED19E4236BFC3EB4203F31A9B1969
:104270009BB2934253D2D31A9BB2AB4228BF2B4678
:104280009DB27319B4F806C01FFA83F9A5EB020AB0
:104290009642334603D39B1A9BB29342FBD2D21A67
:1042A00091B22068CCF30E02A942174602FB03002C
:1042B00052D3414605FB02F201F06EF9A3884E4548
:1042C0004FEA430202D8B9EB430F01DBA9EB020925
:1042D000E0682A46A4F8089028BB104602B0BDE862
:1042E000F087954227D29E4236BFC3EB4201F11AB6
:1042F000891989B250002944AF1A8142BA4608DBB5
:10430000991889B24E1BB6B2B342894638D9301AD1
:1043100086B2AB191FFA83F9B4F806C0B8E70022D9
:10432000E0680028D9D0009201F042FB009A1046C4
:1043300002B0BDE8F087002AF2D0B4F806C0AD1A8A
:1043400099181E46CCF30E0303FB05884FF0000AB4
:1043500015461FFA81F99BE711FB02F2414692B222
:104360000193009201F018F9019B009A534413FB4A
:1043700007F308EB020120689AB201F00DF99DE7FE
:10438000B042C4DDC8E700BF10B50446C06818B12C
:104390004FF0FF3101F000FB206918B14FF0FF3101
:1043A00001F0FAFA0023E0686381238108B101F08B
:1043B000FFFA206908B101F0FBFA012010BD00BF2F
:1043C00038B50446C0680D4618B14FF0FF3101F012
:1043D000E3FA206918B14FF0FF3101F0DDFAE3791B
:1043E000E06865F3C713E37108B101F0E1FA2069F1
:1043F00008B101F0DDFA012038BD00BF3A4B2DE9CC
:10440000F043984214BF4FF400234FF48023054635
:10441000364E374C374A83B033602360946833EAB2
:104420000404FBD14FF0020906200191FDF70AF8C0
:10443000AE464A465EF8046F01990EF540574FEAC2
:10444000412843464FEAD15C1640C7F8009008E087
:1044500013EB080302F102024CEBD15CB2F5807F52
:1044600003D0984274EB0C09F2D24FF48073C2EB84
:10447000022C01E0012B34D0B0FBFCF841459946F9
:10448000ACEB020C03F1FF33F4D209FB02F91C027E
:1044900002212B46B0FBF9F04FF0030C2A612A6889
:1044A0000EF5005E624005F5805802F47F42C8F8C0
:1044B0000020CEF800606C68396053F8242B0C4063
:1044C00082F0070202F0CF0203F50053C8F8002083
:1044D000CEF80040C3F800C0CEF8001003B0BDE82D
:1044E000F0839146D4E700BF00000840002002405E
:1044F000003002400000024030B5044683B08DE831
:104500000C000D469DE803002346BDF818E0BDF8F9
:104510001CC043F8045B0CFB0EF062604000197194
:10452000A4F80AE0A4F80CC0FDF7C6F9034620463B
:10453000236103B030BD00BFF0B5044683B000680E
:10454000FFF75CFF20790121FBF75CFF0121607917
:10455000FBF758FFA079FBF773FF4FF00105A37934
:1045600045EC443045EC4030E079FBF769FFE379F6
:1045700045EC4430207AFBF763FF237A45EC443066
:1045800045EC40300520FCF7CFFD4FF00006237AC4
:1045900046EC40300520FCF7C7FD237A45EC40305F
:1045A000FD270520FCF7C0FDA3798DF8077046ECC8
:1045B0004030E37946EC4030012220680DF10701DC
:1045C00001F00EFAE37945EC40300122A24920685F
:1045D00001F006FAA37945EC40308DF8077046ECFF
:1045E0004030E37946EC4030012220680DF10701AC
:1045F00001F0F6F9E37945EC403001229749206853
:1046000001F0EEF9A37945EC4030AE228DF8072099
:1046100046EC4030E37946EC4030012220680DF151
:10462000070101F0DDF9A37945EC4030B3228DF8A4
:10463000072046EC4030E37946EC40300122206808
:104640000DF1070101F0CCF9E37945EC403001228E
:104650008349206801F0C4F9A37945EC4030CA22AF
:104660008DF8072046EC4030E37946EC40300122DB
:1046700020680DF1070101F0B3F9E37945EC403012
:1046800001227849206801F0ABF9A37945EC40306C
:10469000A2228DF8072046EC4030E37946EC40300A
:1046A000012220680DF1070101F09AF9E37945EC48
:1046B000403001226C49206801F092F9A37945EC61
:1046C0004030B5228DF8072046EC4030E37946ECC7
:1046D0004030012220680DF1070101F081F9E379F2
:1046E00045EC403001226149206801F079F9A37955
:1046F00045EC4030AB228DF8072046EC4030E379A2
:1047000046EC4030012220680DF1070101F068F904
:10471000E37945EC403001225549206801F060F909
:10472000A37945EC4030B1228DF8072046EC4030AB
:10473000E37946EC4030012220680DF1070101F0D9
:104740004FF9E37945EC403001224A49206801F0F5
:1047500047F9A37945EC4030BE228DF8072046EC9E
:104760004030E37946EC4030012220680DF107012A
:1047700001F036F9E37945EC403001223E492068EA
:1047800001F02EF9A37945EC4030A6228DF80720E0
:1047900046EC4030E37946EC4030012220680DF1D0
:1047A000070101F01DF9A37945EC4030C1228DF8D5
:1047B000072046EC4030E37946EC40300122206887
:1047C0000DF1070101F00CF9E37945EC40300322CB
:1047D0002A49206801F004F9A37945EC4030C7224A
:1047E0008DF8072046EC4030E37946EC403001225A
:1047F00020680DF1070101F0F3F8E37945EC403052
:1048000001221F49206801F0EBF8A37945EC403004
:10481000B4228DF8072046EC4030E37946EC403076
:10482000012220680DF1070101F0DAF8E37945EC87
:10483000403003221349206801F0D2F8A37945ECF7
:104840004030B6228DF8072046EC4030E37946EC44
:1048500040300122206817E0FC1D0110F81D0110F6
:10486000F41D0110F01D0110EC1D0110E81D0110D8
:10487000E41D0110E01D0110DC1D0110D81D011008
:10488000D41D0110D01D01100DF1070101F0A8F891
:10489000E37945EC403001222E49206801F0A0F870
:1048A000A37945EC4030A0228DF8072046EC40303B
:1048B000E37946EC4030012220680DF1070101F058
:1048C0008FF8E37945EC403001222349206801F05C
:1048D00087F8A37945EC4030A1228DF8072046ECFB
:1048E0004030E37946EC4030012220680DF10701A9
:1048F00001F076F8E37945EC403001221749206851
:1049000001F06EF8A37945EC4030AF228DF8072016
:1049100046EC4030E37946EC4030012220680DF14E
:10492000070101F05DF8A37945EC40306589A38962
:1049300003FB05F565B100231946184622690131CC
:10494000D05422698D421A44507003F10203F5D10C
:1049500003B0F0BDCC1D0110C81D0110C41D011015
:1049600010B58389B0F80AE003FB0EFEBEF1000F1C
:104970000DD000239C460C0A02690CF1010CD454A2
:104980000269E6451A44517003F10203F4D110BDE7
:10499000B0F80AC08C4510D900B5B0F80CE09645C7
:1049A0000AD90CFB021102694FEA132C02F811C05C
:1049B000026902EB4102537000BD70472DE9F04FD0
:1049C0001D4685B0BDF83C306E1A02931B0A039356
:1049D0000E9B002EA3EB0208B8BF7642B8F1000F81
:1049E000B8BFC8F100089342D4BF4FF0FF33012392
:1049F0008D42D4BF4FF0FF394FF001090193C8F148
:104A000000078BB2A6EB080C009644891FFA82FAC5
:104A1000A3424FEA4C0E11D2B0F80CB0D3450DD9D9
:104A2000D3461FFA81FA04FB0BAA039E046904F81B
:104A30001A600469029E04EB4A046670A9420ED013
:104A4000B7EB4C0F06DC009B49447345ACEB080CFC
:104A50008BB2DADB009CA444019C2244D5E70E9C77
:104A6000A242EDD105B0BDE8F08F00BF2DE9F041C5
:104A70001746884682B0BDF82040BDF824605D1816
:104A80003C44013C00926B1E0196FFF797FF2246C3
:104A900041466B1ECDE90046FFF790FF4346414675
:104AA0003A46CDE90046FFF789FF6B1E3A461946A4
:104AB0000996089402B0BDE8F041FFF77FBF00BF40
:104AC0002DE9F043BDF81C70BDF8204007EB02094A
:104AD0004A4520DA0E4659188E421CDA250A33461A
:104AE000B0F80AC003F1010E9C450CD9B0F80C8057
:104AF000904508D90CFB0233076907F81350076982
:104B000007EB43035C701FFA8EF38B42E8DB013244
:104B100092B24A45E3DBBDE8F08300BF2DE9F04FD8
:104B20001C0689B0BDF848E09DF84CA070D417462B
:104B3000B946394A4FEA1E2B02EBC30202F10708BD
:104B4000531EBA1ACDE9062813F8018F069C8C462D
:104B50001C44A4B20A46CDE904310025414609EBC4
:104B60000A06019408E00CEB0A0701350132082D12
:104B700092B21FFA87FC44D041FA05F3DB07F2D565
:104B8000BAF1010F13D14489944237D98389019F27
:104B9000BB4233D904FB072403690CF1010703F876
:104BA00014B0036903EB440383F801E0DDE7B1458A
:104BB0000CEB0A07D9DABC45D7DAC846CDE9025171
:104BC00063464489591C9C420CD98589454509D9BD
:104BD00004FB0833056905F813B0046904EB4304CA
:104BE00084F801E08BB2BB42EBDB08F101081FFA4D
:104BF00088F8B045E4DBDDE90251B6E70CF10107C6
:104C0000B3E7079ADDE904319A421FFA86F99BD18E
:104C100009B0BDE8F08F00BF0C0F00202DE9F04F68
:104C20001D461B7883B0BDF830B09DF83490FBB1C1
:104C3000164688460C464FEAC90A0AF101070A2BB4
:104C400007EB060208D115F8013F96B283B10A2B93
:104C5000444607EB0602F6D021463246CDE900B9BC
:104C6000FFF75CFF15F8013F54440BB1A4B2E6E72F
:104C700003B0BDE8F08F00BF2DE9F04F89B0BDF85B
:104C800048E0DDF84CA0BEF1000F00F0B3801E46F6
:104C9000838905469342174640F3AC80002E00F00E
:104CA000A98000208C4602920246CDE905C669899A
:104CB000DFF8489106EB0C0BCDF81CE0CDF84CA0CA
:104CC000069B3C1803FB02F2139B02EB42021A44C0
:104CD0000390059B1FFA84FA04974BE0A14243D945
:104CE000AC89544540D9029CC6F1FF0801FB04374A
:104CF000C40AC0F3451001902869009400EB4704F2
:104D000010F8177064784FEAD70C1CFB08FC44EAD3
:104D1000072704F01F0414FB08F4C7F34517009895
:104D200017FB08F710FB06CC0EF01F0E019816FBC0
:104D30000E4416FB0077A9FB0C0CA9FB0404A9FB8D
:104D4000070798B201FB0A004FEADC1CE40944EAB9
:104D5000CC24FF092E6944EA4714210A06F81010F2
:104D6000296901EB40014C7001339B4502F10302BC
:104D700023D0698999422FDD1678002EF4D09078DF
:104D80005778FF2E40EA072E70469CB2A6D1A1426A
:104D9000EAD9AC895445E7D99CB201FB0A44296998
:104DA000000A01F814002969013301EB44019B4515
:104DB00081F801E002F10302DBD1DDE90307431CC6
:104DC00098B2079B984215D2AB89C1198B42024613
:104DD00002910FDD698973E7DDE90307431C98B28F
:104DE000079B834206D9AB893C18A3420246029432
:104DF0003FF766AF09B0BDE8F08F00BF81808080CB
:104E000070B5152100264289838984B0013A013B9F
:104E10008DF80D30044683798DF809208DF8071040
:104E20008DF808608DF80C6046EC4030C37946EC94
:104E3000403001220DF10701006800F0D1FD01258D
:104E4000E37945EC40300222206802A900F0C8FD59
:104E5000A37945EC403075228DF8072046EC4030B0
:104E6000E37946EC40302A4620680DF1070100F056
:104E7000B7FDE37945EC40300222206803A900F039
:104E8000AFFDA37945EC40305C228DF8072046EC5D
:104E90004030E37946EC40302A4620680DF10701A6
:104EA00000F09EFDA37945EC403046EC4030E379BC
:104EB00045EC4030A3896289216903FB02F2206836
:104EC000AA4000F08DFDA37945EC403004B070BDE0
:104ED00000B5A0EB010C0198521AA0EB030E0EFBDB
:104EE0000CFC9CFBF2FC0CEB030000BD024B0146EA
:104EF000186800F003B800BF2017002001F10B0371
:104F0000162B2DE9F04F804685B02CD8102922D8D9
:104F100000F0C8FA18214FF0020E1022B64C2144BE
:104F20004D68A1F10800854200F05F816A68404643
:104F300022F00302D5E902412A44E1608C6005F1C8
:104F40000804516841F00101516000F0B1FA2046B7
:104F500005B0BDE8F08F0C23C8F8003000242046CF
:104F600005B0BDE8F08F002B23F00702F3DB914280
:104F7000F1D8009200F096FA009AB2F5FC7FC0F0EA
:104F80009F81530A73D0042B00F26481930903F1CB
:104F9000390E03F138064FEACE03974C2344A3F1B0
:104FA00008055F68BD4207D10DE00028FB6880F26C
:104FB0000B819D421F4606D0796821F00301881AB3
:104FC0000F28F2DDB64623698C498B4200F0E98058
:104FD0005E6826F00306B11A0F2900F38381874823
:104FE0000029C4E9040080F27081B6F5007F67688B
:104FF00080F01081F108012076090131B04054F8A9
:105000003150074304EBC10008386760C3E9025020
:1050100044F83130EB604FEAAE0301269E40BE42B9
:105020002BD83E4206D12EF0030E76000EF1040E70
:105030003E42FAD004EBCE0AF14604EBCE07F96803
:105040000CE048680B46C96820F0030CACEB020585
:105050000F2D00F30C81002D80F222818F42F0D1C0
:1050600009F10103083798079946E8D174E14FF434
:1050700000734FF0400E3F268FE7A768796821F054
:1050800003069642A6EB020002D30F2800F38B80A2
:105090005B490820096810311144CDE9001200F085
:1050A00069FA009903468246481E5D421844554BF2
:1050B00005401868B0F1FF3F18BF294640460091EF
:1050C00000F040FA411C0546DDE9001200F027819E
:1050D00007EB060C844500F22081DFF834910AF1D9
:1050E000FF3ED9F800000844C9F8000000F08381B1
:1050F000444B1B68013300F08881A5EB0C0C604425
:10510000C9F8000015F00703CDE901299B4600F01E
:105110003F81C3F1080005440AEB000C40466B18C0
:1051200003EA0E019A46ACEB010101EA0E031946AF
:10513000009300F007FA421CDDE9012900F08081AC
:10514000411B009BD9F80000A7421944A5601844F0
:1051500041F00101C9F80000696016D00F2E40F23D
:105160005781A6F10C01052621F0070C796801F0A2
:105170000101BCF10F0F41EA0C01796007EB0C0152
:10518000C1E9016600F2638169681F4B1E688642AF
:1051900038BF18601D4B1E68864200D218602F462B
:1051A000BFE0676837E7BD1842F0010240F0010137
:1051B00040467A60A56007F10804696000F078F95C
:1051C000204605B0BDE8F08FBA68394407F10804FD
:1051D0004046D3609A604A6842F001024A6000F09B
:1051E00067F9204605B0BDE8F08FCD68A9427FF48D
:1051F0009DAE0EF1020EE6E61813002020130020EB
:10520000B41B00200C130020AC1B0020B01B00209E
:10521000841B0020B6F5206F4FEA562077D3142860
:1052200000F2CC8000F15C015B30C9006518615868
:10523000083D8D4203D1A4E089688D4204D04868BE
:1052400020F00300B042F7D8CD68C3E90215AB6087
:10525000CB60E0E6142B71D9542B00F2B780130B0E
:1052600003F16F0E03F16E064FEACE0395E69E182A
:1052700042F001029F6840465A60874AF9608F6099
:105280000093C4E90466C6E9022245F00102726097
:1052900043F80C5000F00CF9009B03F108045EE6A3
:1052A0009C441C464046DCF8043043F00103CCF833
:1052B000043054F8083FD9608B6000F0F9F84EE6EE
:1052C0004FEAD20E02F1080128E61E444046009340
:1052D000726842F00102726000F0EAF8009B03F18C
:1052E00008043CE69D1842F00102404600935A60D3
:1052F000694AC4E90455C5E9022241F001026A6025
:10530000995100F0D5F8009B03F1080427E6B00995
:1053100000F139013830C90088E7A74261D0A76899
:10532000796821F003019142A1EB020002D30F281A
:105330003FF739AF404600F0BBF80FE603F15C0ED3
:1053400003F15B064FEACE0327E6514651F80839D0
:105350008B428A4640F09E801EF0030F0EF1FF3E06
:10536000F3D1636823EA060363607600711E9942F5
:1053700003D382E6760009F104091E42FAD0CE4634
:1053800058E68010012606FA00F0074367605CE7E4
:105390006B18404603EA0E010393AAEB010101EAF0
:1053A0000E031946009300F0CDF8431CDDE90129F6
:1053B0007FF4C6AE0398CDF800B0C1E654282AD8D1
:1053C000300B00F16F016E30C9002FE7B3F5AA7FF3
:1053D0002AD8D30B03F1780E03F177064FEACE03F8
:1053E000DBE5DFF8BC900AF1FF3ED9F80000084485
:1053F000C9F800007CE615EA0E0F7FF479AE31445F
:10540000A56841F001016960BFE6244B1D6079E6A3
:1054100001236B608EE7B0F5AA7F27D8F00B00F16F
:1054200078017730C90001E740F254518B4227D808
:10543000930C03F17D0E03F17C064FEACE03ACE53D
:10544000ABF1080100230AEB0100009378E607F1B5
:1054500008014046CDE9002900F098F9A568DDF87B
:1054600004906968D9F80000009A8EE640F2545121
:1054700088420BD8B00C00F17D017C30C900D5E624
:105480004FF47E734FF07F0E7E2686E54FF47E71DB
:105490007E20CBE6636868E7201300200C13002011
:1054A000841B0020014800F073B800BF801B00205F
:1054B000014800F06FB800BF801B002030B58407A2
:1054C0008646034606D0A2B303F8011B980702F1F3
:1054D000FF32F8D1032A26D95FFA81FC0F2A0CEBA0
:1054E0000C2C0CEB0C402AD922F00F0C9C44C3E985
:1054F0000000C3E9020010336345F8D112F00C0F2D
:1055000002F00F0517D04FEA950C1A460CF1FF3444
:1055100003EB8C0C42F8040B6245FBD1043305F01D
:10552000030203EB840322B11A4403F8011B9A42DD
:10553000FBD1704630BD2A46002AF5D1F9E7154661
:10554000E1E700BF38B50023064C05460846236056
:10555000FCF7D2F9431C00D038BD2368002BFBD0E8
:105560002B6038BD48220020014B1868704700BFEF
:1055700020170020082802D14FF48050704708B54A
:10558000FFF7F2FF162203464FF0FF301A6008BD06
:10559000704700BF704700BF844641EA000313F024
:1055A000030349D1403A23D30B6803604B6843603F
:1055B0008B688360CB68C3600B6903614B6943618F
:1055C0008B698361CB69C3610B6A03624B6A436277
:1055D0008B6A8362CB6AC3620B6B03634B6B43635F
:1055E0008B6B8363CB6BC36340304031403ADBD27B
:1055F00030320BD30B6803604B6843608B68836069
:10560000CB68C36010301031103AF3D20C3205D39E
:1056100051F8043B40F8043B043AF9D2043208D074
:10562000D2071CBF11F8013B00F8013B01D30B88E6
:1056300003806046704700BF082A13D38B07B1D0A0
:1056400010F00303AED0C3F10403D21ADB071CBF72
:1056500011F8013B00F8013BA4D331F8023B20F8DC
:10566000023B9FE7043AD9D3013A11F8013B00F815
:10567000013BF9D20B7803704B7843708B788370C1
:105680006046704720F0030110F00300C0F10000F5
:1056900051F8043B00F1040C4FEACC0C6FF000020F
:1056A0001CBF22FA0CF213434FF0010C4CEA0C2CF5
:1056B0004CEA0C4CA3EB0C0222EA030212EACC12D5
:1056C00004BF51F8043B0430F4D0C2F1000102EAF7
:1056D0000102B2FA82F2C2F11F0200EBD20070475F
:1056E000F8B5064608200C46FFF744FF074630464B
:1056F000FFF7D8FE224A93685D6825F00305A5F1FF
:1057000011031C1B3C44B4FBF7F4013C07FB04F4FD
:10571000A74208DC00213046FFF714FF184A9368BF
:105720002B44984204D03046FFF7C2FE0020F8BD5B
:1057300061423046FFF706FF0130114A0DD02D1BA4
:1057400010499368304645F001055D600B681B1BEE
:105750000B60FFF7ADFE0120F8BD00213046FFF7DA
:10576000F1FE074A9268831A0F2BDCDD43F0010338
:1057700004495360044B1B68C01A0860D3E700BF9C
:1057800018130020841B00200C130020002962D075
:105790002DE9F0410C460746FFF784FE7A4954F89C
:1057A00004ECA4F1080C8D682EF001030EF0010644
:1057B0000CEB03025068954220F0030000F0878054
:1057C000151850606D6805F00105A84696BB54F8A1
:1057D000084C01F1080EACEB040C2344DCF8084043
:1057E000744567D0DCF80C50E560AC60B8F1000F90
:1057F00000F0888043F00100CCF804001360B3F59A
:10580000007F32D25809DA08012383404868013208
:10581000034351F832004B6001EBC203083BCCE973
:10582000020341F832C0C0F80CC03846BDE8F04170
:10583000FFF73EBE85B9034401F1080E906843F0BE
:105840000104704577D0D268C2609060CCF8044003
:105850004CF80330D3E770474EF00102B3F5007FF8
:1058600044F8042C4CF80330CCD3B3F5206F4FEA46
:10587000532249D29A0902F1390002F13804C200D8
:1058800088188A580838904203D15DE092689042A7
:1058900004D0516821F003019942F7D8D068CCE9CF
:1058A0000220C0F808C03846C2F80CC0BDE8F0417C
:1058B000FFF7FEBD9DBB1844D2E90223D3609A6076
:1058C00040F00103CCF804304CF80000ADE7184478
:1058D00046B954F8083CACEB030C1844DCE902234D
:1058E000D3609A6040F00103CCF80430274BC1F834
:1058F00008C01B68834298D8254B38461968FFF7C3
:10590000EFFE92E7034499E7142A0ED9542A22D8CD
:105910001A0B02F16F0002F16E04C200B0E743F00F
:105920000101CCF8041013607FE702F15C0002F182
:105930005B04C200A4E7C1E904CCCCE902EECCF8D8
:1059400004404CF8033070E7A4100123A3404C68D6
:1059500023434B60A3E7B2F5AA7F06D8DA0B02F126
:10596000780002F17704C2008AE740F25450824284
:1059700006D89A0C02F17D0002F17C04C2007FE798
:105980004FF47E727E247BE7181300201013002052
:10599000B41B0020F8B500BF5FF800F0350200200E
:1059A0005FF800F07D0A00205FF800F0F90A00209F
:1059B0005FF800F06D0200205FF800F0550A00204B
:1059C0005FF800F0A90200205FF800F0B10A0020A3
:1059D0005FF800F0CD0100205FF800F01101002019
:1059E0005FF800F0B10D0020251700109D16001083
:1059F000CD160010B917001005170010251600105D
:105A00004D17001011160010290A00105117001030
:105A1000E50D00106D16001039170010E916001082
:105A2000D5050010FD05001099210010110200108D
:105A300048656C6C6F20776F726C64210000000009
:105A40000A2A2A2A2050414E4943202A2A2A0A009B
:105A50000A0000004E6F207370696E6C6F636B7389
:105A60002061726520617661696C61626C6500001D
:105A70004E6F2075736572204952517320617265B3
:105A800020617661696C61626C65000048617264D6
:105A90007761726520616C61726D20256420616C94
:105AA000726561647920636C61696D6564000000F2
:105AB0004861726420617373657274004F7574205D
:105AC0006F66206D656D6F727900000052656C65C0
:105AD00061736500626F6F74325F77323571303891
